:020000040800F2
:1000000000000120A11A0008A9190008AD19000874
:10001000B1190008B5190008B9190008000000005E
:10002000000000000000000000000000815A0008ED
:10003000BD19000800000000115B0008AD57000862
:10004000F11A0008F11A0008F11A0008F11A000864
:10005000F11A0008F11A0008F11A0008F11A000854
:10006000F11A0008C1190008F11A0008F11A000875
:10007000F11A0008F11A0008F11A0008F11A000834
:10008000F11A0008F11A0008F11A0008F11A000824
:10009000F11A0008F11A0008F11A0008F11A000814
:1000A000C9190008F11A0008F11A0008F11A00082D
:1000B000F11A00080000000000000000F11A00081A
:1000C000F11A00080000000000000000F11A00080A
:1000D00000000000F11A0008F11A000800000000FA
:1000E000F11A0008F11A00080000000000000000EA
:1000F0000000000000000000000000000000000000
:10010000000000000000000000000000F11A0008DC
:100110000000000000000000F11A0008F11A0008B9
:10012000F11A0008F11A0008F11A0008F11A000883
:10013000F11A0008000000000000000000000000AC
:10014000F11A0008F11A0008F11A0008F11A000863
:10015000F11A0008F11A0008F11A0008F11A000853
:10016000F11A0008F11A0008F11A00080000000056
:10017000F11A0008F11A0008000000000000000059
:0C018000F11A0008F11A0008F11A00083A
:1001C00053B94AB9002908BF00281CBF4FF0FF31BE
:1001D0004FF0FF3000F00CB8ADF1080C6DE904CE23
:1001E00008F05EF8DDF804E0DDE9022304B07047B2
:1001F000704700BF844641EA000313F003036DD14A
:10020000403A41D351F8043B40F8043B51F8043BD9
:1002100040F8043B51F8043B40F8043B51F8043BE0
:1002200040F8043B51F8043B40F8043B51F8043BD0
:1002300040F8043B51F8043B40F8043B51F8043BC0
:1002400040F8043B51F8043B40F8043B51F8043BB0
:1002500040F8043B51F8043B40F8043B51F8043BA0
:1002600040F8043B51F8043B40F8043B51F8043B90
:1002700040F8043B51F8043B40F8043B51F8043B80
:1002800040F8043B403ABDD2303211D351F8043B20
:1002900040F8043B51F8043B40F8043B51F8043B60
:1002A00040F8043B51F8043B40F8043B103AEDD2CF
:1002B0000C3205D351F8043B40F8043B043AF9D220
:1002C000043208D0D2071CBF11F8013B00F8013BF3
:1002D00001D30B8803806046704700BF082A13D300
:1002E0008B078DD010F003038AD0C3F10403D21A18
:1002F000DB071CBF11F8013B00F8013B80D331F84C
:10030000023B20F8023B7BE7043AD9D3013A11F8CB
:10031000013B00F8013BF9D20B7803704B78437036
:100320008B7883706046704700000000000000007A
:1003300001F0FF01102A2BDB10F0070F08D010F896
:10034000013B013A8B422DD010F0070F42B3F6D19A
:10035000F0B441EA012141EA014122F007047FF0B3
:1003600000070023F0E80256083C85EA010586EA0A
:10037000010685FA47F5A3FA87F586FA47F6A5FA46
:1003800087F68EB9EED1F0BC01F0FF0102F0070252
:1003900032B110F8013B013A83EA010313B1F8D1FD
:1003A0000020704701387047002D06BF35460338DE
:1003B000073815F0010F07D1013015F4807F02BF17
:1003C000013015F4C03F0130F0BC0138704700BF68
:1003D000000000000000000000000000000000001D
:1003E000000000000000000000000000000000000D
:1003F00000000000000000000000000000000000FD
:1004000030B490F800F020F007016FF0000C10F00D
:10041000070491F820F040F048804FF000046FF09E
:100420000700D1E9002391F840F000F1080082FABA
:100430004CF2A4FA8CF283FA4CF3A2FA8CF34BBB85
:10044000D1E9022382FA4CF200F10800A4FA8CF2FE
:1004500083FA4CF3A2FA8CF3E3B9D1E9042382FACC
:100460004CF200F10800A4FA8CF283FA4CF3A2FAE1
:100470008CF37BB9D1E9062301F1200182FA4CF219
:1004800000F10800A4FA8CF283FA4CF3A2FA8CF380
:10049000002BC6D0002A04BF04301A4612BAB2FAA2
:1004A00082F200EBD20030BC7047D1E9002304F0A7
:1004B0000305C4F100004FEAC50514F0040F91F8DC
:1004C00040F00CFA05F562EA05021CBF63EA050379
:1004D00062464FF00004AAE781F0004102E000BF4D
:1004E00083F0004330B54FEA41044FEA430594EAF4
:1004F000050F08BF90EA020F1FBF54EA000C55EA2F
:10050000020C7FEA645C7FEA655C00F0E2804FEAFF
:100510005454D4EB5555B8BF6D420CDD2C4480EAE1
:10052000020281EA030382EA000083EA010180EA11
:10053000020281EA0303362D88BF30BD11F0004F5F
:100540004FEA01314FF4801C4CEA113102D0404295
:1005500061EB410113F0004F4FEA03334CEA1333D0
:1005600002D0524263EB430394EA050F00F0A780E8
:10057000A4F10104D5F1200E0DDB02FA0EFC22FAE3
:1005800005F2801841F1000103FA0EF2801843FAD7
:1005900005F359410EE0A5F120050EF1200E012AC8
:1005A00003FA0EFC28BF4CF0020C43FA05F3C01806
:1005B00051EBE37101F0004507D54FF0000EDCF17F
:1005C000000C7EEB00006EEB0101B1F5801F1BD328
:1005D000B1F5001F0CD349085FEA30004FEA3C0C2C
:1005E00004F101044FEA445212F5800F80F09A8022
:1005F000BCF1004F08BF5FEA500C50F1000041EB26
:10060000045141EA050130BD5FEA4C0C404141EB29
:100610000101013C28BFB1F5801FE9D291F0000F24
:1006200004BF01460020B1FA81F308BF2033A3F1D3
:100630000B03B3F120020CDA0C3208DD02F1140CCA
:10064000C2F10C0201FA0CF021FA02F10CE002F105
:100650001402D8BFC2F1200C01FA02F120FA0CFCFE
:10066000DCBF41EA0C019040E41AA2BF01EB045147
:10067000294330BD6FEA04041F3C1CDA0C340EDC45
:1006800004F11404C4F1200220FA04F001FA02F388
:1006900040EA030021FA04F345EA030130BDC4F146
:1006A0000C04C4F1200220FA02F001FA04F340EA3B
:1006B0000300294630BD21FA04F0294630BD94F0EC
:1006C000000F83F4801306BF81F480110134013DD3
:1006D0004EE77FEA645C18BF7FEA655C29D094EA44
:1006E000050F08BF90EA020F05D054EA000C04BFC2
:1006F0001946104630BD91EA030F1EBF00210020AD
:1007000030BD5FEA545C05D14000494128BF41F04B
:10071000004130BD14F580043CBF01F5801130BDAF
:1007200001F0004545F0FE4141F470014FF000003A
:1007300030BD7FEA645C1ABF194610467FEA655CEB
:100740001CBF0B46024650EA013406BF52EA03358D
:1007500091EA030F41F4002130BD00BF90F0000F7B
:1007600004BF0021704730B54FF4806404F13204B7
:100770004FF000054FF0000150E700BF90F0000F70
:1007800004BF0021704730B54FF4806404F1320497
:1007900010F0004548BF40424FF000013EE700BF67
:1007A00042004FEAE2014FEA31014FEA02701FBFF7
:1007B00012F07F4393F07F4F81F06051704732F029
:1007C0007F4208BF704793F07F4F04BF41F4002180
:1007D000704730B54FF4607401F0004521F00041DE
:1007E0001CE700BF50EA010208BF704730B54FF068
:1007F00000050AE050EA010208BF704730B511F069
:10080000004502D5404261EB41014FF4806404F1A0
:1008100032045FEA915C3FF4D8AE4FF003025FEA26
:10082000DC0C18BF03325FEADC0C18BF033202EBAA
:10083000DC02C2F1200300FA03FC20FA02F001FA04
:1008400003FE40EA0E0021FA02F11444BDE600BFA7
:1008500070B54FF0FF0C4CF4E06C1CEA11541DBF56
:100860001CEA135594EA0C0F95EA0C0F00F0DEF821
:100870002C4481EA030621EA4C5123EA4C5350EA06
:10088000013518BF52EA033541F4801143F4801357
:1008900038D0A0FB02CE4FF00005E1FB02E506F0E8
:1008A0000042E0FB03E54FF00006E1FB03569CF03D
:1008B000000F18BF4EF0010EA4F1FF04B6F5007F43
:1008C00064F5407404D25FEA4E0E6D4146EB0606B5
:1008D00042EAC62141EA55514FEAC52040EA5E503E
:1008E0004FEACE2EB4F1FD0C88BFBCF5E06F1ED8E8
:1008F000BEF1004F08BF5FEA500E50F1000041EB1F
:10090000045170BD06F0004646EA010140EA0200CB
:1009100081EA0301B4EB5C04C2BFD4EB0C0541EAED
:10092000045170BD41F480114FF0000E013C00F302
:10093000AB8014F1360FDEBF002001F0004170BD26
:10094000C4F10004203C35DA0C341BDC04F114043F
:10095000C4F1200500FA05F320FA04F001FA05F2CB
:1009600040EA020001F0004221F0004110EBD37098
:1009700021FA04F642EB06015EEA430E08BF20EAC4
:10098000D37070BDC4F10C04C4F1200500FA04F367
:1009900020FA05F001FA04F240EA020001F00041F9
:1009A00010EBD37041F100015EEA430E08BF20EA6C
:1009B000D37070BDC4F1200500FA05F24EEA020EB4
:1009C00020FA04F301FA05F243EA020321FA04F0E3
:1009D00001F0004121FA04F220EA020000EBD3709A
:1009E0005EEA430E08BF20EAD37070BD94F0000F9A
:1009F0000FD101F00046400041EB010111F4801FCE
:100A000008BF013CF7D041EA060195F0000F18BF7E
:100A1000704703F00046520043EB030313F4801FBA
:100A200008BF013DF7D043EA0603704794EA0C0F74
:100A30000CEA135518BF95EA0C0F0CD050EA41068A
:100A400018BF52EA4306D1D181EA030101F0004107
:100A50004FF0000070BD50EA410606BF104619462F
:100A600052EA430619D094EA0C0F02D150EA01363B
:100A700013D195EA0C0F05D152EA03361CBF10467C
:100A800019460AD181EA030101F0004141F0FE411B
:100A900041F470014FF0000070BD41F0FE4141F49F
:100AA000780170BD70B54FF0FF0C4CF4E06C1CEA9F
:100AB00011541DBF1CEA135594EA0C0F95EA0C0F54
:100AC00000F0A7F8A4EB050481EA030E52EA03350F
:100AD0004FEA013100F088804FEA03334FF0805530
:100AE00045EA131343EA12634FEA022245EA11155D
:100AF00045EA10654FEA00260EF000419D4208BF0E
:100B0000964244F1FD0404F5407402D25B084FEABA
:100B10003202B61A65EB03055B084FEA32024FF466
:100B200080104FF4002CB6EB020E75EB030E22BFC3
:100B3000B61A754640EA0C005B084FEA3202B6EB83
:100B4000020E75EB030E22BFB61A754640EA5C0032
:100B50005B084FEA3202B6EB020E75EB030E22BFC2
:100B6000B61A754640EA9C005B084FEA3202B6EBC3
:100B7000020E75EB030E22BFB61A754640EADC0082
:100B800055EA060E18D04FEA051545EA16754FEAE4
:100B900006164FEAC30343EA52734FEAC2025FEA02
:100BA0001C1CC0D111F4801F0BD141EA00014FF091
:100BB00000004FF0004CB6E711F4801F04BF014362
:100BC0000020B4F1FD0C88BFBCF5E06F3FF6AFAE7E
:100BD000B5EB030C04BFB6EB020C5FEA500C50F10E
:100BE000000041EB045170BD0EF0004E4EEA113191
:100BF00014EB5C04C2BFD4EB0C0541EA045170BD98
:100C000041F480114FF0000E013C90E645EA060EDB
:100C10008DE60CEA135594EA0C0F08BF95EA0C0F09
:100C20003FF43BAF94EA0C0F0AD150EA01347FF451
:100C300034AF95EA0C0F7FF425AF104619462CE728
:100C400095EA0C0F06D152EA03353FF4FDAE10468B
:100C5000194622E750EA410618BF52EA43067FF4DC
:100C6000C5AE50EA41047FF40DAF52EA43057FF46C
:100C7000EBAE12E74FF0FF3C06E000BF4FF0010C77
:100C800002E000BF4FF0010C4DF804CD4FEA410CDB
:100C90007FEA6C5C4FEA430C18BF7FEA6C5C1BD0A8
:100CA00001B050EA410C0CBF52EA430C91EA030F29
:100CB00002BF90EA020F0020704710F1000F91EA86
:100CC000030F58BF994208BF90422CBFD8176FEA54
:100CD000E37040F0010070474FEA410C7FEA6C5C22
:100CE00002D150EA013C07D14FEA430C7FEA6C5C29
:100CF000D6D152EA033CD3D05DF8040B704700BF55
:100D00008446104662468C461946634600E000BFA2
:100D100001B5FFF7B7FF002848BF10F1000F01BD74
:100D20004DF808EDFFF7F4FF0CBF012000205DF83F
:100D300008FB00BF4DF808EDFFF7EAFF34BF0120C4
:100D400000205DF808FB00BF4DF808EDFFF7E0FF5D
:100D500094BF012000205DF808FB00BF4DF808EDAE
:100D6000FFF7CEFF94BF012000205DF808FB00BF15
:100D70004DF808EDFFF7C4FF34BF012000205DF8F7
:100D800008FB00BF4FEA410C7FEA6C5C02D150EADD
:100D9000013C0AD14FEA430C7FEA6C5C02D152EA73
:100DA000033C02D14FF0000070474FF00100704744
:100DB0004FEA410212F5001215D211D56FF4787383
:100DC000B3EB625212D94FEAC12343F0004343EA26
:100DD000505311F0004F23FA02F018BF4042704701
:100DE0004FF00000704750EA013005D111F000408B
:100DF00008BF6FF0004070474FF00000704700BF21
:100E00000348044B834202D0034B03B11847704799
:100E1000C4070020C4070020000000000548064B5E
:100E20001B1AD90F01EBA301491002D0034B03B1E8
:100E300018477047C4070020C407002000000000C6
:100E400010B5064C237843B9FFF7DAFF044B13B112
:100E50000448AFF300800123237010BDC8070020B1
:100E600000000000E0E8000808B5054B1BB105498B
:100E70000548AFF30080BDE80840FFF7CFBF00BFD3
:100E800000000000CC070020E0E8000838B5044668
:100E90000E48218807F062F90D4BA17893F83420B1
:100EA000914204D0BDE838400A4807F057B9257987
:100EB000E47809482946224607F050F905B138BDC3
:100EC0002046BDE8384000F035B900BFF8E800081A
:100ED000CCEE000844E9000810E9000838B50446E3
:100EE0001348218807F03AF9124BA17893F828208B
:100EF0008A4206D093F834200F48BDE8384007F006
:100F00002DB92579E4780D482946224607F026F9BF
:100F1000022D07D0032D00D038BD2046BDE8384053
:100F200000F018B92046BDE8384000F00BB900BF0A
:100F30007CE90008CCEE000844E9000894E90008C8
:100F400010B506F07BFE04462146044807F006F97A
:100F50002046BDE8104000F021B900BFC8E90008F4
:100F600010B582B00146684607F090F9BDF802401E
:100F7000BDF80010064807F0F1F80648214607F0D2
:100F8000EDF8204602B0BDE8104000F0F1B800BF17
:100F9000E0E90008FCE9000810B506F04FFE044641
:100FA0002146044807F0DAF8A0B2BDE8104000F08E
:100FB0009FB800BF18EA000803460248198807F0E6
:100FC000CDB800BF30EA000803460248198807F090
:100FD000C5B800BF5CEA000803460248198807F05C
:100FE000BDB800BF5CEA000803460248198807F054
:100FF000B5B800BF84EA000808B50A4807F0AEF8A3
:1010000000F056F8022809D000F052F80228BDE896
:10101000084014BF0220012000F084B800F074F8EA
:10102000F2E700BFACEA000802494FF47A720320ED
:1010300000F0ECB8F90F000810B500F039F80128FD
:101040000A4C03D004F0ECFB206010BD04F0E8FB78
:101050002368C01A00F05EF800F01EF8014604484C
:1010600007F07CF804F0DCFB206010BDE4070020F2
:10107000BCEA0008014B1888704700BFF807002041
:10108000014B588800F0B8BEF8070020014B5868A3
:10109000704700BFF8070020034A044B5068A3FBC9
:1010A0000030C0F38F107047F8070020D34D621056
:1010B000024B187800F00300704700BFF4070020CF
:1010C000024B1878C0F38000704700BFF40700207F
:1010D000024B1878C0F3C000704700BFF40700202F
:1010E000024B1878C0F30010704700BFF4070020CF
:1010F000014B1880704700BFF8070020014B588053
:10110000704700BFF8070020014B00225A6070476B
:10111000F8070020024A536803445360704700BF39
:10112000F8070020024B1A7860F301021A7070472A
:10113000F4070020024B1A7860F382021A7070479D
:10114000F4070020024B1A7860F3C3021A7070474C
:10115000F4070020024B1A7860F304121A707047EB
:10116000F4070020014B1888704700BFEC070020EF
:10117000084A40F61B431178984210B488BF0023F8
:10118000054C98BF012363F30411208011705DF8B2
:10119000044B7047F4070020EC070020014B186057
:1011A000704700BFF0070020014B1868704700BF70
:1011B000F0070020024B1878C0F34010704700BFC2
:1011C000F4070020024A137860F34103137070475C
:1011D000E8070020024A137860F382031370704717
:1011E000E8070020024A137860F300031370704789
:1011F000E80700200349044B0020082248801A60B9
:10120000704700BFF8070020F4070020034B03EBF2
:1012100000100023C0E90112C360704700000020E5
:10122000B0F5807F2DE9F0417CD0024618D8202807
:1012300034D8002838D0431E1F2B35D8DFE803F000
:10124000386734743434346334343434343434618B
:10125000343434343434343434343434343434651D
:10126000B0F5805F55D02BD9B0F5804F45D0B0F5A3
:10127000004F08BF0F241DD12C4D05EB041627018C
:10128000B3685BBB2A492B48224606F067FF3D4402
:101290006B68002B3FD0BDE8F0411847402828D0AC
:1012A000802808BF0724E7D02149234806F056FFCD
:1012B0000024E1E7B0F5005F08BF0D24DCD0F3E7C0
:1012C000B0F5806F17D0B0F5006F08BF0B24D3D0F6
:1012D000B0F5007F08BF0924CED0E5E704F0A0FAFE
:1012E000F368C01AB368984209D304F099FAF06021
:1012F000CDE70624C0E70A24BEE70E24BCE7BDE81C
:10130000F0810424B8E70324B6E70524B4E70124F8
:10131000B2E70C24B0E7224605490848BDE8F04191
:1013200006F01CBF0824A7E70224A5E70000002060
:1013300044EB000820EB0008F4EA0008CCEA0008BF
:101340000149024806F00ABF64EB00084CEB0008B4
:1013500010B5124C1021204601F040FCA0F1010014
:10136000B0FA80F04009FFF72DFF2021204601F060
:1013700035FCA0F10100B0FA80F04009FFF72AFF28
:101380002046022101F02AFCA0F10100B0FA80F011
:10139000BDE810404009FFF725BF00BF000400482A
:1013A00038B50B4D284600F00FFD50B12A88094989
:1013B000094806F0D3FE01242888FFF79FFE204647
:1013C00038BD04460349054806F0C8FE204638BD2E
:1013D0000008002098EB000888EB00086CEB000880
:1013E00008B5012004F06CFAFBE700BF30B599B0F6
:1013F0004422002106A807F0BFF900234FF4007033
:10140000CDE90133CDE90333059302F00FF908B1BB
:1014100072B6FEE7102202230A9201240822CDE9C7
:101420001033CDE912424FF48071069316930722D0
:10143000022306A8CDE91423099102F0D7F9034647
:1014400008B172B6FEE703220F25CDE9015221460D
:10145000802201A8CDE90323059302F0D1FC08B155
:1014600072B6FEE719B030BD00B5002489B000F0B7
:1014700033FEFFF7BBFFCDE90244CDE90444684BDE
:101480000694D96C674841F00101D964D96C01F028
:10149000010100910099D96C41F00201D964DB6C23
:1014A00003F00203224601930121019B01F09CFB02
:1014B00008224FF4881302A94FF09040CDE902238F
:1014C0000125049401F0ACFA564802A9CDE9025571
:1014D000CDE9044401F0A4FA32235248049402A94D
:1014E000CDE9023401F09CFA05212246092001F0E1
:1014F0004DFA092001F086FA4B484C494FF48273AB
:10150000C0E900134FF4E063C0E902430223036122
:101510004FF40073C0E905531823C3610723C0E9E2
:101520000844C0E90A43C0E90C4403F05BF808B181
:1015300072B6FEE73E4C3F4B2083CDE90200CDE979
:101540000400CDE90600C4E90100C4E90300C4E9D0
:101550000A0084F8200084F83000606384F83800C2
:101560000426204623606661E56100F0D7FD03464E
:1015700008B172B6FEE7304A049307930623CDE91B
:10158000022302A97F2320460593069600F0FAFE67
:10159000034608B172B6FEE7284C2949294A23625E
:1015A0002046C4E90012C4E90235C4E90433C4E9A1
:1015B000063301F0C9FC014608B172B6FEE72046C9
:1015C00001F0D6FF014608B172B6FEE7204601F0F1
:1015D000F9FF034608B172B6FEE71B481B4C4FF4F7
:1015E000E1310C22C0E90041C0E90233C0E9043214
:1015F000C0E90633C0E9083304F070F8044608B1C6
:1016000072B6FEE704F0E0F8114A1248214604F0F1
:101610000FF9114B186000F09DFB04F0E7F8FEE7AE
:1016200000100240000400488C08002000300140F7
:1016300044090020000004500002B025F0080020FA
:1016400000540040BB7C70000808002000440040AB
:10165000ACEB0008E113000804080020034B02680B
:101660009A4200D0704700F047BD00BF00400140E3
:1016700072B6FEE70E4B10B4186E40F0010018660B
:101680001C6E83B004F001040094009C9C6D44F037
:1016900080549C659B6D03F080530193019B002255
:1016A0000F216FF0010003B05DF8044B01F06EB93B
:1016B000001002400000000010B504469CB000215C
:1016C000542207A8CDE90211CDE90411069107F0D3
:1016D00053F8234B22689A4201D01CB010BD4FF43E
:1016E00080414FF080520223079119920121082274
:1016F000CDE908310A9207214FF0807207A8CDE9A1
:101700000B13CDE90D3202F005FDF8B9154BDA6C7B
:1017100042F40052DA64DA6C02F400520092009A49
:10172000DA6C42F00102DA64DB6C9FED0B7B03F0B4
:101730000103019302A900234FF090408DED027B3D
:10174000019A049301F06CF91CB010BDFFF790FFF3
:10175000DCE700BFAFF30080100000000B000000CA
:10176000000004500010024010B504469CB0002157
:10177000542207A8CDE90211CDE90411069106F023
:10178000FBFF1B4B22689A4201D01CB010BD4023C6
:1017900007A8079302F0BEFC18BB164CE36C43F09D
:1017A0000103E364E36C9FED107B03F001030093FE
:1017B0000423009A06930022032302A94FF09040CD
:1017C000CDE904238DED027B01F02AF9A36D43F4EA
:1017D0000013A365A36D03F400130193019B1CB0D8
:1017E00010BDFFF745FFD8E700060000120000001B
:1017F000005400400010024010B51B4A016888B038
:1018000000239142CDE90233CDE90433069301D0A0
:1018100008B010BD03F1804303F504339FED107B46
:101820001A6E42F480521A661A6E02F480520092C6
:10183000009ADA6C42F00102DA64DB6C03F0010317
:1018400001930322052302A94FF090408DED027B06
:10185000019C0592069301F0E3F808B010BD00BFAB
:10186000C2000000020000000030014030B5044614
:101870009DB00021542207A8CDE90211CDE9041141
:10188000069106F079FF214B22689A4201D01DB0E3
:1018900030BD022307A8079302F03CFC002831D199
:1018A0001B4B9A6D42F400329A659A6D02F4003235
:1018B0000092009ADA6C42F00102DA64DB6C0420D8
:1018C000022103F00103CDE9020101930024032565
:1018D00002A94FF0904007230693CDE90445019BF0
:1018E00001F09EF84FF400420223CDE9022302A941
:1018F00003234FF09040CDE90445069301F090F8A2
:101900001DB030BDFFF7B4FECAE700BF0044004081
:10191000001002401F4B70B51A6E1F4C42F480320B
:101920001A661B6E88B003F4803301A90293064641
:1019300003A8029B02F03EFB02F02AFB174A18495B
:10194000A2FB00239B0C013B0022C4E900132046AC
:1019500040F2E7332261A260A261E36003F0F2FA91
:10196000054610B1284608B070BD204603F05CFB68
:1019700005460028F6D1182001F044F80F2E01D9B1
:101980000125EFE72A463146182000F0FFFF054BFE
:101990001E60E7E700100240A809002083DE1B4319
:1019A0000040014008010020FEE700BFFEE700BF45
:1019B000FEE700BFFEE700BFFEE700BF704700BFC5
:1019C000082001F017B900BF014803F061BB00BF58
:1019D000A80900200120704708B506F04DFF162326
:1019E00003604FF0FF3008BD08B506F045FF162331
:1019F0000360FEE770B5161E07DD0C468D19AFF3C8
:101A0000008004F8010BA542F9D1304670BD00BF3B
:101A100070B5161E07DD0C468D1914F8010BAFF3D7
:101A20000080AC42F9D1304670BD00BF4FF0FF30AE
:101A3000704700BF4FF400534B600020704700BF59
:101A400001207047002070470C490D4A0B6810B503
:101A50000C4C121B2BB11844904207D80860184652
:101A600010BD094B0B6018449042F7D906F004FFF3
:101A70000C2303604FF0FF33184610BDF40900201B
:101A8000000001200004000078920020034AD2F8F0
:101A9000883043F47003C2F88830704700ED00E0EE
:101AA000DFF834D0FFF7F2FF0C480D490D4A002350
:101AB00002E0D458C4500433C4188C42F9D30A4A03
:101AC0000A4C002301E013600432A242FBD306F06B
:101AD000D9FEFFF7C9FCFEE700000120000000204E
:101AE000C407002094F30008C80700207492002067
:101AF000FEE7000070B503F093FE044609480A4E65
:101B00000A4D06F02BFBFFF78FFA04F5FA74204616
:101B100003F0E4FE3146284606F020FBFFF78CFA7E
:101B2000F3E700BF18EC00085CEC000820EC0008AC
:101B300008B5044A0448002103F07AFE034B1860FC
:101B400008BD00BF38EC0008F51A0008F8090020AD
:101B50002DE9F04F85B003F063FE05462748284F76
:101B6000DFF8A4B0DFF8A4A006F0F8FA002006F031
:101B700017FB8146032006F013FB804606F018FB96
:101B800000263446C83501342846E4B203F0A6FEE8
:101B9000042C19D086B3FFF70DFB394602461948CD
:101BA00006F0DCFAB8F80260FFF704FB04220346F3
:101BB00031460DEB020006F063FB01A806F0FAFACD
:101BC000002606F0F9FADDE73946584606F0C6FA6F
:101BD000B9F80240FFF754FA2146024601A806F080
:101BE00045FB01A806F0E6FA39460246504606F0E3
:101BF000B5FA0024002ECED10126E2E764EC0008FD
:101C0000FCEC0008A8EC00086CEC000884EC000870
:101C100008B5044A0448002103F00AFE034B18608B
:101C200008BD00BFD8EC0008511B0008FC090020CB
:101C300070B503F0F5FD0A49094E0A4D04460A48FD
:101C400006F08CFAFFF77CFB04F5FA74204603F0EB
:101C500045FE3146284606F081FAFFF779FBF3E7A7
:101C600050ED000810ED000804ED000808B5044A26
:101C70000448002103F0DCFD034B186008BD00BFE1
:101C80002CED0008311C0008000A00202DE9F04767
:101C900003F0C6FD2249234D214F234EDFF89080EB
:101CA0000446224806F05AFA00F0BAF804F5FA742D
:101CB000204603F013FEFFF7E9F9394602463046A5
:101CC00006F04CFAFFF70CFA01280DD02B7873B10F
:101CD0002B78022B10D0FFF7FBF901281DD0FFF75E
:101CE00063FA00F0F1F8E1E700F0DCF8DEE7FFF777
:101CF00039FA00F045F9D9E7FFF7BCF98146FFF75B
:101D0000DFF98246FFF7E4F9A8FB0939024651469C
:101D1000C9F38F1000F086F8C8E700F0B1F8C5E706
:101D2000C0ED00080401002070ED000858ED000827
:101D3000D34D621008B5044A0448002103F078FD31
:101D4000034B186008BD00BF9CED00088D1C000807
:101D5000040A002008B5FFF74DFA00F025F8FFF758
:101D600057FFFFF783FFFFF7E3FEBDE80840FFF7EB
:101D7000E1BF00BF70B503F053FD04460748084EAD
:101D8000084D06F0EBF9C834204603F0A7FD3146B4
:101D9000284606F0E3F9FFF703FBF4E7C8ED000877
:101DA0001CEE0008D4ED000808B5044A04480021E0
:101DB00003F03EFD034B186008BD00BFF8ED0008BE
:101DC000751D0008080A002010B50446094800F0F7
:101DD0008BFD08B1002010BD06484FF0FF3100F028
:101DE00075FA0028F6D1034800F0C8FA20800120D7
:101DF00010BD00BF4409002040F6C87398420AD8BD
:101E000058B14FF47A72054B02FB00F0C008A3FBF7
:101E10000030800870474FF47A707047D718070277
:101E200000F0E2B800B56428144B28BF6420A3FB7F
:101E300000C3012A83B04FEAD30314BF4FF0100E42
:101E40004FF0620E012914BF1021782103EB8302A9
:101E5000A0EB42024FF06B0C8DF801100020694698
:101E60008DF800E08DF802308DF803208DF804C065
:101E700000F00CF903B05DF804FB00BFCDCCCCCC76
:101E800000B5074B93E8030083B000908DF8041071
:101E90000020694600F0FAF803B05DF804FB00BFCB
:101EA00024EE000800B5074B93E8030083B00090D0
:101EB0008DF804100020694600F0E8F803B05DF8E2
:101EC00004FB00BF2CEE000810B542F20F739842DD
:101ED00082B047DC264B274A274C8342B8BF0346D3
:101EE000002882FB030225484FEAE37180FB030CC4
:101EF00084FB03E0C1EB6212C1EBAC1CC1EBA0019F
:101F000084FB020E84FB01044FEAE270C0EBAE00DA
:101F100000EB8000A2EB40024FEAE170C0EBA400AE
:101F200000EB8000A1EB400001EB8101A3EB41033A
:101F30005FFA8CFCD2B2C0B2DBB2B4BF2D24102445
:101F40008DF80430002364F307036CF30F2362F36E
:101F5000174360F31F6369460020009300F096F872
:101F600002B010BD092318461A469C461024E7E724
:101F7000F1D8FFFF1F85EB5167666666D34D62108F
:101F800040F2E7329042164B10B528BF1046A3FB33
:101F900000124FEAD20CA3FB0C4312490CEB8C024B
:101FA000DB0882B0A1FB004103EB8303A0EB4200FE
:101FB000ACEB430C4A0960F07F034FF0760E10241F
:101FC000694600208DF800408DF801208DF802C090
:101FD0008DF803308DF804E000F058F802B010BD21
:101FE000CDCCCCCC1F85EB5130B587B04FF47A7493
:101FF00040F20240022305AAC021ADF8140000946B
:10200000214800F0F5FF4FF60C70022305AAC0210D
:10201000ADF8140000941C4800F0EAFF40F20340C1
:10202000022305AAC021ADF814000094164800F060
:10203000DFFF012504ABFF2200938DF81020CDE9CE
:10204000015411482B460222C02101F067F938B92A
:102050009DF8103003F00F03042B8DF8103002D0E0
:10206000002007B030BD42F20411ADF8141006484C
:102070000094022305AAC02100F0BAFF0028EFD186
:10208000284607B030BD00BFF00800202DE9F04120
:10209000104E84B00F1D4D1EC1F121044FF47A780B
:1020A000CDF80080601915F8011F8DF80C008DF82F
:1020B0000D10022303AAC021304600F099FF28B971
:1020C000BD42EDD1012004B0BDE8F081002004B094
:1020D000BDE8F081F008002010B5032000F044FCBA
:1020E0000520FFF717FC10B10124204610BD04465F
:1020F000FFF7C0FA204610BD034A044B11681B7855
:102100000B441360704700BF0C0A0020050100203B
:10211000014B1868704700BF0C0A002030B583B02F
:1021200000230193002800F08780456D0446002DB0
:1021300000F0878022689368980005D5936823F0A3
:10214000204323F03F0393609368D90019D45A4B7E
:102150005A481B6891689B09A0FB030321F01041BA
:102160009B0921F03F0101335B0041F080519160F8
:102170000193019B2BB1019B013B0193019B002B20
:10218000F9D19368DB005AD4636D43F010036365A3
:10219000A36D01200343A365936813F0040F636DDF
:1021A00046D1DD0644D4636D23F4817343F002030A
:1021B00063659368D9070AD4414B9B68DB0706D453
:1021C000404965688B6823F47C132B438B60E5687A
:1021D000636B94F820102B43A5682B43657E01297F
:1021E00043EA453343EA014347D0A16A21B1E56A96
:1021F00001F4707129430B43D568334929401943D1
:10220000D1609168936801F0040103F008030B4367
:102210001DD02369012B35D0136B23F00F031363FB
:10222000636D23F0030343F00103636503B030BD26
:10223000636D43F010036365012003B030BD0020DF
:10224000AAE7FFF739FAA56584F8505072E7D1681C
:1022500094F83030257E21F480415B0021F00201AA
:1022600043EA85330B43D36094F83830012B11D007
:10227000136923F001031361CBE7616A013943EA73
:102280004143B2E7116BE36921F00F01013B0B43BE
:102290001363C5E71169E36B256C21F4FF6121F03D
:1022A00004012B430B43616C0B43A16C0B4343F0C4
:1022B00001031361ADE700BF00010020632D3E055F
:1022C000000004500003045007C0F0FFF8B5446953
:1022D000082C05460E4604D00368DB68DA073DD4B7
:1022E0000424FFF715FF731C2A68074627D11368DB
:1022F0001C42FCD06B6D43F400736B65D36813F420
:10230000406F0FD16B7E6BB9136818070AD56B6DE0
:1023100023F480736B656B6DD90403D46B6D43F04C
:1023200001036B65082CD36816D05B0401D40C2321
:1023300013600020F8BD16B913681C4214D013684E
:102340002342D7D1FFF7E4FEC01BB0422A68F2D97E
:1023500013681C42F3D107E01460EAE7436D43F0D1
:10236000200301206B65F8BD6B6D002243F0040370
:1023700085F850206B650320F8BD00BF0368186C1A
:10238000704700BF2DE9F04190F8502082B003461D
:10239000012A4FF00000019000F014811C68012018
:1023A00083F85000A26812F0040255D1486805284D
:1023B00040F28E8082091F2600F01F00864002F046
:1023C0000C02F6430D6804F1300EC5F3846C5EF820
:1023D00002500CFA00F0F44605EA060E40EA0E0040
:1023E0004CF80200A268520740D5A2680A68A068AB
:1023F000C60712D4CE68BB48D4F8B05006F0180710
:10240000F840C2F31207104025EA07052843C4F834
:10241000B000B548864200F08580B4490A4219D020
:10242000B348B44D8168AA4201F0E07658D0B24D6D
:10243000AA4200F0CB80B14DAA420BD14A0209D486
:10244000AF4A944206D1826822F0E072324342F4ED
:1024500080028260002003E05A6D42F020025A653B
:10246000002283F8502002B0BDE8F081A0680A681D
:102470000707BCD4D00D00F0040004F11405C2F32A
:10248000045C8E682A58072707FA0CF706FA0CF640
:1024900022EA070232432A50D1E90462042EE0689E
:1024A00004F1600500F0CC80C0F3C100400055F895
:1024B00026C0944F824008680CEA070700F0F840F5
:1024C0003843024342F0004245F826200A688EE76E
:1024D0000238032800F29D81DFE800F08F9499878D
:1024E0000D02B7D4864A9442B4D18268864922F05C
:1024F000E072324342F4000282600A688349920922
:10250000A1FB02129209013202EB420292000192F7
:10251000019A002A9ED0019A013A0192019A002A5A
:10252000F9D197E7002F77D092FAA2F0002800F0B7
:10253000B180B0FA80F0013000F01F00092840F2AD
:10254000A98092FAA2F0002800F05C81B0FA80F035
:102550000130800600F0F84092FAA2F5002D00F05C
:102560005681B5FA85F5013505F01F05012606FAF5
:1025700005F5284392FAA2F2002A00F04681B2FA49
:1025800082F2551C05F01F0503226FF01D0612FB99
:102590000562120542F000720243D50D886805F00D
:1025A000040504F11406C2F3045200FA02F74FF0D6
:1025B000070C70590CFA02F220EA02023A437251F7
:1025C0000A682AE7022002B0BDE8F081C9013FF5A0
:1025D00041AF4B4A94427FF43DAF826822F0E072F3
:1025E000324342F08072826034E74FF480724A6076
:1025F00000206FF01F060422E4E60C2048606FF410
:10260000F836DFE6122048606FF4F806DAE61820A4
:1026100048606FF0F856D5E6920E013202F01F05C1
:102620000120920602F0F842A840092D40EA02007B
:1026300005EB450253D91E3A120542F00072ABE792
:102640000868226E266EC0F31207C6F3846602463F
:10265000002F5DD1C0F38462964200F08A80666EDE
:10266000666EC6F38466964200F09480AE68AE68EB
:1026700005F1080CC6F38466964200F09F80EE6870
:10268000EE6805F10C07C6F38465AA4200F0AC8041
:102690000246ACE692FAA2F0002800F0AD80B0FA53
:1026A00080F00130800600F0F84092FAA2F5002D8B
:1026B00000F0A080B5FA85F5013505F01F0501266B
:1026C00006FA05F5284392FAA2F2002A00F0978054
:1026D000B2FA82F2013202F01F0202EB420212054C
:1026E0005AE700BFFFFF070000007F40000008809E
:1026F00000030450000052C7000084CB010000809A
:102700000000045000F0FF0300010020632D3E058F
:1027100090FAA0F71FB1B7FA87F7BE4229D0666ECC
:10272000666EC6F3846690FAA0F705F1080CE646DB
:102730001FB1B7FA87F7B7422ED0AE68AE68C6F3BE
:10274000846690FAA0FE05F10C07B846BEF1000FB2
:1027500003D0BEFA8EFEB64532D0EE68ED68C5F302
:10276000846590FAA0F6002E3FF441AEB6FA86F2E8
:102770008BE7226E22F0004222660868626E666E67
:10278000C0F31207C6F384660246002FCBD1C0F314
:10279000846268E705F1080E626E22F0004262660C
:1027A0000868AA68AE68C0F31207F446C6F38466E8
:1027B0000246002FC5D1C0F384625DE705F10C0825
:1027C000DCF8002022F00042CCF800200868EA681B
:1027D000ED68C0F312064746C5F384650246002E35
:1027E000BFD1C0F3846250E73A6822F000423A60F9
:1027F0000A68FCE5022565E74FF0806055E74FF475
:102800004012C9E64FF08060A6E6044AC4E60225FD
:10281000AFE6062048606FF4F866D3E5000050FE8E
:1028200070B582B00022036801929A68D2072CD456
:102830009968284A114204462AD19A68264922F00A
:10284000004222F03F0242F001029A608B681B02B4
:1028500029D4FFF75DFC23681A68D607054614D40F
:102860001E4E9A68D00704D49A68324042F00102A2
:102870009A60FFF74DFC431B022B236802D91A68AC
:10288000D10705D51A68D207EBD5002002B070BD7C
:10289000636D43F010036365A36D012043F00103F2
:1028A000A36502B070BD0E4B0E4A1B689B09A2FBCC
:1028B00003239B09013303EB43039B000193019B1B
:1028C000002BC6D0019B013B0193019B002BF9D14A
:1028D000BFE700BF3F00008000030450C0FFFF7F40
:1028E00000010020632D3E0538B503689D6815F092
:1028F000040533D190F85030012B04462ED001232B
:1029000080F85030FFF78CFF50BB636D23F4706389
:1029100023F0010343F480736365636DDA0448BFF9
:10292000A36D226852BFA06523F00603A3651C2196
:102930000023116084F85030D3689B0105D5636D86
:1029400023F4405343F480536365936823F00043BA
:1029500023F03F0343F00403936038BD022038BDE9
:1029600084F8505038BD00BF0749CA6803024FF6CB
:10297000FF0003F4E0630240134343F0BF6343F4FA
:102980000033CB60704700BF00ED00E01B4BDB68FD
:10299000C3F3022300B5C3F1070EBEF1040F03F128
:1029A000040C28BF4FF0040EBCF1060F1CD9A3F194
:1029B000030C4FF0FF3303FA0CF322EA03024FF04B
:1029C000FF3303FA0EF321EA030303FA0CF3134374
:1029D0001B010028DBB20ADB00F1604000F561401A
:1029E00080F800335DF804FB00229446E7E7044AD0
:1029F00000F00F00024413765DF804FB00ED00E0E8
:102A0000FCEC00E0002807DB044A4109012300F048
:102A10001F00834042F82130704700BF00E100E012
:102A20002DE9F04F0C6885B0002C00F0B880002331
:102A30004FF0010B61E0032A40F0B48002FA0CF27F
:102A4000D0F800C00CEA07073A4315F4403F026093
:102A50004FD05E4F3A6E42F001023A663A6E02F093
:102A600001020392039A23F0030202F1804202F56D
:102A7000803203F0030C97684FEA8C0C0F2606FA9D
:102A80000CFEB0F1904F27EA0E070ED0504EB04228
:102A900000F094804F4EB0420CBF4FF0020E4FF04A
:102AA000070E0EFA0CFC47EA0C0797604A4A926838
:102AB000EE026FEA0A07484E54BF3A404AEA020261
:102AC000B260F268AE02444E54BF3A404AEA020293
:102AD000F2607268AE03404E54BF3A404AEA0202C6
:102AE00072603268ED033C4D54BF3A404AEA02023C
:102AF0002A60013334FA03F251D00BFA03FE1EEAC6
:102B0000040AF6D04D6805F003024FEA430C032691
:102B100002F1FF3806FA0CF7B8F1010F6FEA070768
:102B200089D8D0F80890CE6809EA070906FA0CF8A7
:102B300048EA0908C0F80880D0F804808E6828EABE
:102B40000E08C5F3001E0EFA03FE4EEA080EC0F88A
:102B500004E0D0F80C8006FA0CFE08EA07084EEAFA
:102B6000080E022AC0F80CE07FF468AF0E694FEA45
:102B7000D30803F0070E00EB88084FEA8E0E06FA22
:102B80000EF6D8F8209001960F2606FA0EFE019E4A
:102B900029EA0E0946EA090EC8F820E04EE705B01A
:102BA000BDE8F08FD0F80C808E6807EA080806FAB6
:102BB0000CFE4EEA080EC0F80CE03FE74FF0010EA5
:102BC0000EFA0CFC47EA0C076FE700BF001002404A
:102BD000000400480008004800040140036919424D
:102BE00014BF0120002070470AB1816170478162E3
:102BF000704700BF044A5169014200D1704708B5CF
:102C00005061FEF70DFB08BD000401402DE9F047BF
:102C100082460F469046DAF800309D6915F00205AD
:102C200077D19A6912F0100247D010227E1CDA6127
:102C300074D19A699106FCD52022DA6106260C200F
:102C40000D2407254FF0050C04224FF0010E996961
:102C500011F4807F28D04FF480724F05DA6134D4AC
:102C60008E0554D460469A69940744BF00229A6244
:102C70009A69D10703D49A6942F001029A615A68AD
:102C8000494C22405A60DAF84430202100220343A4
:102C9000CAF844308AF841108AF8422000238AF8A2
:102CA00040300120BDE8F0874C050FD48D0515D5C7
:102CB00030464FF40072DA61D5E702260820092475
:102CC00003254FF0010C9646C1E720464FF4806281
:102CD0008E05DA61C7D540F00200EAE7BEF1000FC9
:102CE0001AD17A1C99D0FFF713FAA0EB0803BB4264
:102CF00001D8002F8FD1DAF8443020210B43002275
:102D0000CAF844308AF841108AF84220C6E72846BB
:102D1000CFE70020BDE8F0871046A4E746464FF015
:102D200020099A6992063AD4002D87D1FFF7F0F96D
:102D3000801B8742DAF8003001D3002FF1D15868A8
:102D40009AF8422099690C04D2B20FD540040DD4F0
:102D5000202A0BD05A6842F480425A60FFF7D8F913
:102D6000DAF80030064601E0DAF800309C6914F029
:102D70002004D6D1FFF7CCF9801B1928F4D9DAF852
:102D80004420DAF800308AF8404042F02002CAF8C5
:102D9000442001258AF841908AF84240E6E7002D58
:102DA0003FF44AAF4AE700BF00E800FE2DE9F047D4
:102DB00082460E469046DAF800309D6915F02005EF
:102DC00075D19A6912F0100247D01022771CDA618F
:102DD00072D19A699106FCD52022DA6106270C206F
:102DE0000D2407254FF0050C04224FF0010E9969C0
:102DF00011F4807F28D04FF480724F05DA6134D40B
:102E00008E0552D460469A69910744BF00229A62A7
:102E10009A69D20703D49A6942F001029A615A680A
:102E2000484C22405A60DAF8443020210022034303
:102E3000CAF844308AF841108AF8422000238AF800
:102E400040300120BDE8F0874D050FD4880515D529
:102E500038464FF40072DA61D5E7022708200924CA
:102E600003254FF0010C9646C1E720464FF48062DF
:102E70008C05DA61C7D540F00200EAE7BEF1000F29
:102E800018D1FFF745F9A0EB0800B04201D8002E99
:102E900091D1DAF8443020210B430022CAF84430A3
:102EA0008AF841108AF84220C8E72846D1E7002076
:102EB000BDE8F0871046A6E747464FF020099A691B
:102EC00092063AD4002D89D1FFF722F9C01B864221
:102ED000DAF8003001D3002EF1D158689AF8422078
:102EE00099690C04D2B20FD540040DD4202A0BD01E
:102EF0005A6842F480425A60FFF70AF9DAF8003063
:102F0000074601E0DAF800309C6914F02004D6D1BD
:102F1000FFF7FEF8C01B1928F4D9DAF844308AF814
:102F2000404043F02003CAF8443001258AF841901C
:102F3000DAF800308AF84240E6E7002D3FF44CAF63
:102F40004CE700BF00E800FE00284FD010B590F815
:102F50004130044603F0FF02002B42D023682422B4
:102F600084F841201968626821F0010122F0706242
:102F700019601A619A68E16822F4004201299A6096
:102F8000A2682AD042F4044202299A6004BF4FF496
:102F900000625A605968226941F0007141F40041B1
:102FA00059606169D8680A43A16920F4004042EA87
:102FB0000122E169D860206ADA600143196019686A
:102FC00041F00101196000222023626484F841303D
:102FD000226384F84220104610BD42F400429A60F9
:102FE000D8E780F84020FEF7BFFBB7E70120704725
:102FF0002DE9F84F1E4690F84130DDF82880202B4F
:1030000040F0878090F84030012B054600F0818029
:10301000012380F840308B461746FFF779F8814648
:1030200005E0FFF775F8A0EB0903192B74D82868A1
:10303000846914F40044F4D1212385F8413010232D
:1030400085F842306C646E856B8D6F629BB2FF2B8E
:103050006C63CBF3090B6ED86B8D9F4942689BB2B2
:103060002B85DBB24BEA03430A40134343F0007362
:1030700043F4005343606B8D9BB2002B6BD0866989
:1030800016F0020640F0B580836913F0100377D084
:103090001023B8F1FF3FC36140F0F88083699A06BE
:1030A000FCD52023C361826912F4807F4FF00607AC
:1030B0004FF00C014FF00D044FF007064FF0050CD8
:1030C0004FF004034FF0010E69D04FF48073C361D9
:1030D00053056DD4970574D4614683699E0744BF38
:1030E000002383628369DC0703D4836943F001030F
:1030F00083614368794C234043606B6C002220203D
:103100000B436B6485F8402085F8410085F8422028
:103110000EE00220BDE8F88F6B6C002243F0200324
:1031200020216B6485F8402085F8411085F8422005
:103130000120BDE8F88F4368674A134043EA0B0358
:1031400043F0FF7343F49033FF222A8543606B8D75
:103150009BB2002B93D14A4641462846FFF726FEF4
:103160000028E5D12B685D4C2021D9615A682240A6
:103170005A6085F8411085F8400085F84200C9E79B
:10318000826912F4807F4FF002074FF008014FF080
:1031900009044FF003064FF0010C9E4695D15605E9
:1031A00007D492050FD539464FF40073C36194E7F5
:1031B00021464FF480639405C3618ED541F002012E
:1031C000F2E73146F0E7BEF1000F4ED1B8F1FF3F14
:1031D0003FF455AFFEF79CFFA0EB090398459BD346
:1031E000B8F1000F98D02868866916F002063FF4FF
:1031F0004BAF696A2B8D11F8012B82626A8D69626F
:10320000013A92B26A856A8D013B9BB292B22B85DC
:10321000002A3FF430AF002B7FF42DAFB8F1FF3F11
:103220001FD183691A06FCD56B8D9BB2FF2B1ED96B
:1032300043682B4A134043EA0B0343F0FF7343F404
:103240008033FF222A85436015E7FEF761FFA0EB7C
:1032500009039845FFF460AFB8F1000F3FF45CAF8D
:10326000286883691B06F0D5DEE7194635E76B8DC4
:103270001B499BB22B85DAB243680B4043EA0B0330
:1032800043EA024343F000734360F4E64F464FF0D5
:10329000200A83699B063CD4002E7FF404AFFEF71E
:1032A00037FFC01B8045286802D3B8F1000FF0D16A
:1032B000416895F8423082691404DBB213D54904A1
:1032C00011D4202B0FD0436843F480434360FEF7B2
:1032D0001FFF0746286806E0009800FC00E800FE93
:1032E000009C00FC2868846914F02004D1D1FEF70A
:1032F0000FFFC01B1928F5D96B6C286885F8404072
:1033000043F020036B64012685F841A085F8424014
:10331000E9E7002E3FF4C5AEC5E600BF2DE9F04752
:10332000984690F84130BDF824A00A9E202B7FD10A
:10333000089B0446002B75D0BAF1000F72D090F8AC
:103340004030012B74D0012380F840300F46914665
:10335000FEF7DEFE054604E0FEF7DAFE401B192804
:1033600069D82368986910F40040F5D1089A626220
:10337000222284F84120402284F842206064A4F88C
:103380002AA05A68774960630A405FFA88F142EAE6
:103390000142C7F309073A4342F400525A603146EA
:1033A0002A462046FFF732FC002840F0C180B8F1E1
:1033B000010F216864D15FFA89F38B62701C5BD1C5
:1033C0008B695A06FCD5638D9BB2FF2B40F2978028
:1033D0004B68644A13403B4343F0FF7343F492331A
:1033E000FF2222854B60701C3AD18B695A07FCD5AD
:1033F000636A4A6A1A70628D238D616A013A92B2D9
:103400006285628D013B01319BB292B2616223857C
:103410000AB1002B43D0638D9BB2002B00F08C804F
:103420002168E0E74FF4007363640120BDE8F08792
:103430000220BDE8F087636C002243F020032021C6
:10344000636484F8402084F8411084F84220ECE75B
:10345000FEF75EFE401B8642EDD3002EEBD02168C6
:103460008B695B07F4D5C3E7FEF752FE431B9E4210
:1034700055D3002E53D021688B695B06F4D5A2E7A3
:103480004FEA19238B622A4631462046FFF7BEFBDE
:1034900000284DD121685FFA89F38B628EE7701C9A
:1034A00022681AD193691906FCD5638D9BB2FF2B54
:1034B00017D953682C490B403B4343F0FF7343F447
:1034C0008033FF2121855360A5E7FEF721FE431BD2
:1034D0009E42B0D3002EAED0226893691B06F4D56D
:1034E000E3E7638D20489BB22385D9B2536803403C
:1034F0003B4343EA014343F0007353608BE7638D22
:1035000018489BB22385DAB24B6803403B4343EA39
:10351000024343F0007343F410534B6063E7636C62
:1035200020210B430022636484F8411084F8422078
:10353000002384F8403078E72A4631462046FFF7DA
:1035400035FC00287FF471AF2368084D2021D96134
:103550005A682A405A6084F8411084F8400084F880
:10356000420063E7009800FC009C00FC00E800FEBD
:1035700090F84120202A23D15FFA82FC90F8402065
:10358000012A03461CD00268242000B583F84100BC
:10359000106820F001001060106820F48050106066
:1035A00010680143116011684FF0000E41F00101F5
:1035B000116083F841C083F840E070465DF804FB79
:1035C0000220704790F84120202A22D100B55FFAEE
:1035D00082FE90F84020012A03461CD00268242075
:1035E00083F84100106820F001001060106820F49A
:1035F000706040EA0121116011684FF0000C41F049
:103600000101116083F841E083F840C060465DF835
:1036100004FB0220704702205DF804FB024B18688F
:1036200000F4C060704700BF00700040B0F5007F3C
:103630000ED01B4A136803F4C063B3F5806F05D046
:10364000136823F4C06343F4806313600020704761
:1036500013490B6803F4C063B3F5007FF6D00B6821
:10366000104A23F4C06343F400730B6013680E4ADE
:10367000322000FB03F34869A2FB03239B0C4005A7
:1036800003F1010306D500E023B14A69520503F1B5
:10369000FF33F9D4024B5B695B05D7D50320704734
:1036A000007000400001002083DE1B4330B5204D38
:1036B000AB6DDB0083B004461AD5FFF7AFFFB0F562
:1036C000007F27D0802C2CD82FD0A4F17004B4FA1E
:1036D00084F4640917490B6823F0070323430B6044
:1036E000086800F00700001B18BF012003B030BDC0
:1036F000AB6D43F08053AB65AB6D03F0805301932A
:10370000019BFFF78BFFAB6DB0F5007F23F080537B
:10371000AB65D7D1802C06D9A12C34BF012402245B
:10372000D8E70324D6E70024D4E70224D2E700BF79
:103730000010024000200240284A9368D26813F02B
:103740000C0305D00C2B35D0042B41D124487047F5
:10375000224A1168090754BFD2F8942012682149FF
:1037600054BFC2F30322C2F3031251F8220003B381
:103770000C2B1DD1194BDB6803F00303022B25D062
:10378000194A032B08BF1046144BD968DA68DB6866
:10379000C3F34163C2F30622C1F30211013300FBFC
:1037A00002F201315B00B2FBF1F2B2FBF3F07047C1
:1037B0000020704702F00302012AC9D0074BDB68E2
:1037C00003F00303022B4FF00000D9D10448DBE7DC
:1037D000082B054818BF0020704700BF00100240AA
:1037E0000024F400D0EB000800127A00002800F05A
:1037F00000832DE9F043944A03689568D66804462F
:10380000D80683B005F00C0506F003062ED5002D72
:1038100000F023810C2D00F01D81A3698A4F002B3D
:1038200000F092813B6843F001033B60FEF770FCBF
:10383000804606E0FEF76CFCA0EB0800022800F2D0
:1038400093813B689B07F5D53B6843F008033B60D9
:103850003B68226A23F0F00313433B607B68E26914
:1038600023F47F4343EA02237B602368D90700F1F6
:10387000C180990723D5042D00F056810C2D00F04E
:103880005081E368704E002B00F08981336843F467
:1038900080733360FEF73CFC074605E0FEF738FC1A
:1038A000C01B022800F2608133685B05F6D573689F
:1038B000226923F0F85343EA02637360236819070F
:1038C00019D56369604E002B00F01781D6F894304B
:1038D00043F00103C6F89430FEF71AFC074605E0F2
:1038E000FEF716FCC01B022800F23E81D6F8943089
:1038F0009A07F5D523685F073FD5534B9A6DD600DD
:1039000000F14B819A6D42F080529A659B6D03F0F5
:1039100080530193019B01264C4F3B68D80540F131
:103920009881A368012B00F04C81052B00F0BC812D
:10393000454FD7F8902022F00102C7F89020D7F821
:10394000902022F00402C7F89020002B40F0408124
:10395000FEF7DEFB41F28839804606E0FEF7D8FB31
:10396000A0EB0800484500F2FF80D7F890309B0795
:10397000F4D4002E40F07F812368980618D5636A3E
:10398000314E002B00F05181D6F8983043F00103FE
:10399000C6F89830FEF7BCFB074605E0FEF7B8FB1B
:1039A000C01B022800F2E080D6F898309907F5D5C0
:1039B000A36ADBB1022B00F085810C2D00F08F8013
:1039C000214C236823F080732360FEF7A1FB05469A
:1039D00005E0FEF79DFB401B022800F2C58023682E
:1039E0009B01F6D4E2681A4B1340E360002003B059
:1039F000BDE8F083082D76D00C2D72D06368B3F546
:103A0000803F00F0B580B3F5A02F00F040810E4F4D
:103A10003A6822F480323A603A6822F480223A60AE
:103A2000002B40F0AA80FEF773FB804606E0FEF70D
:103A30006FFBA0EB0800642800F296803B689803B7
:103A4000F5D4236815E700BF001002400070004065
:103A5000FCFFEEFE012E7FF4E0AEA64B1B6899073B
:103A60003AD4A44B206A1A68120756BFD3F8943090
:103A70001B681B0903F0F003984200F2BE809D4BC7
:103A80001A6842F008021A601A6822F0F002024333
:103A90001A605A68E16922F47F4242EA01225A60C0
:103AA000002D00F0EE80FFF747FE924B924A9B6894
:103AB000C3F30313D35C914A03F01F0320FA03F30B
:103AC00010688F4A1360FDF725FF00288FD1236807
:103AD000D9077FF5CEAE8DE7A369002BC1D10120B8
:103AE00085E7032E8AD1834A126892037FF5C1AE1F
:103AF0006268002A7FF4BDAEF1E7D6F8943023F077
:103B00000103C6F89430FEF703FB074604E0FEF716
:103B1000FFFAC01B022827D8D6F894309B07F6D4AA
:103B2000E8E6022E7FF4ADAE724A1268520502D565
:103B3000E268002AD3D06F4920694A6822F0F8521F
:103B400042EA00624A60BAE63B6823F001033B6048
:103B5000FEF7DEFA80463B689807B8D5FEF7D8FA3C
:103B6000A0EB08000228F6D9032003B0BDE8F083DB
:103B7000604A136843F480331360FEF7C9FADFF834
:103B80007481074604E0FEF7C3FAC01B6428EBD833
:103B9000D8F800309B03F6D553E70026BCE633681F
:103BA00023F480733360FEF7B3FA074604E0FEF7B0
:103BB000AFFAC01B0228D7D833685805F7D423685A
:103BC0007DE64C4AD2F8903043F00103C2F89030C1
:103BD000FEF79EFADFF81C81074641F2883904E0BF
:103BE000FEF796FAC01B4845BED8D8F890309A0721
:103BF000F6D5002E3FF4C0AE3DE0FFF757FD00289C
:103C00007FF46DAF3B4B1A6842F008021A601A68E5
:103C1000216A22F0F0020A431A605A68E16922F42C
:103C20007F4242EA01225A603DE7D6F8983023F0FD
:103C30000103C6F89830FEF76BFA074604E0FEF77A
:103C400067FAC01B02288FD8D6F898309A07F6D4A6
:103C5000AEE63B6843F480733B60FEF759FA80465A
:103C60003B68D9053FF55DAEFEF752FAA0EB0800C0
:103C70000228F5D978E71F4A936D23F080539365A6
:103C80007AE6FFF713FD00283FF40DAF27E703F1B5
:103C90008043A3F53C331A6842F480221A601A6804
:103CA00042F480321A6068E7124BD3F8902042F059
:103CB0000402C3F89020D3F8902042F00102C3F828
:103CC000902085E70B4EE26AF36803F0030191420E
:103CD00052D00C2D3FF403AF064D2B685B013FF52E
:103CE000FEAE2B6823F080732B60FEF711FA0646B8
:103CF0000EE000BF0010024008EC000808010020A0
:103D000000010020FEF704FA801B02283FF62CAFCA
:103D10002B689F01F6D4E968374BE26A206B374E77
:103D20000B401343D4E90D1243EA012343EAC26373
:103D3000D4E90F120138490843EA00130139520847
:103D400043EA4153013A43EA4263EB602B6843F094
:103D500080732B60EB6843F08073EB60FEF7D8F95B
:103D6000044605E0FEF7D4F9001B02283FF6FCAE3E
:103D700033689801F6D539E6216B03F070020139FA
:103D8000B2EB011FA5D1616B03F4FE42B2EB012F30
:103D90009FD1A16B03F07842B2EBC16F99D1E26B76
:103DA000520803F4C001013AB1EB425F91D1226C99
:103DB000520803F0C063013AB3EB426F89D1336814
:103DC00099013FF513AE336843F080733360F368B5
:103DD00043F08073F360FEF79BF9044605E0FEF7BD
:103DE00097F9031B022B3FF6BFAE33689A01F6D555
:103DF000FCE50120704700BF8C809D01001002404F
:103E0000002800F0A080544A136803F007038B4297
:103E10002DE9F0410D4604460CD2136823F0070348
:103E20000B431360136803F007038B4202D0012099
:103E3000BDE8F0812368990703F0010270D5474E71
:103E4000A068B16801F0F001884204D9B16821F09E
:103E5000F0010143B16032B36268404B032A1B6832
:103E600065D0022A6CD0002A71D19E07DFD53B4E67
:103E7000B36823F003031343B360FEF749F941F23B
:103E80008838074604E0FEF743F9C01B40455CD87C
:103E9000B368626803F00C03B3EB820FF3D12368BD
:103EA000990706D5A0682D498A6802F0F00282427F
:103EB00040D829490A6802F00702AA4209D90A68CB
:103EC00022F007022A430A600A6802F00702AA42A7
:103ED000ADD15A0706D52149E0688A6822F4E0622C
:103EE00002438A601B0707D51C4A2169936823F4A3
:103EF000605343EAC1039360FFF71EFC174A184C56
:103F000092681849C2F303120346A25C164802F0F5
:103F10001F02D340BDE8F04100680B60FDF7FABC1A
:103F2000002AC6D062680D4B032A1B6899D19B01F9
:103F30009DD47CE78A6822F0F00202438A60B8E7E9
:103F40009F0394D473E701207047032070E758055E
:103F50007FF56DAF8BE700BF0020024000100240EC
:103F600008EC00080001002008010020054B064A6B
:103F70009B680649C3F302230868D35C03F01F0360
:103F8000D84070470010024000EC000800010020FB
:103F9000054B064A9B680649C3F3C2230868D35CF5
:103FA00003F01F03D84070470010024000EC0008E7
:103FB000000100200E4B0F2202609A6802F00302FB
:103FC00042609A6802F0F00282609A6802F4E0624D
:103FD000C2609B68DB0810B403F4E063054C036126
:103FE00023685DF8044B03F007030B60704700BFC4
:103FF0000010024000200240454AF8B5D6680D4640
:10400000B1070446006806D0D16801F0030181427F
:104010004BD00120F8BD022858D003284FD00128EA
:10402000F7D112689307F5D53949CA6822F07302AF
:1040300042EA00036268013A43EA0213CB60344E5D
:10404000336823F080633360FEF762F8074604E0CC
:10405000FEF75EF8C31B022B3CD833681A01F7D475
:10406000A3681902002D37D13269E36822F0784243
:1040700041EAC36322F4FE4213433361244D2B68AB
:1040800043F080632B60FEF743F8064604E0FEF73A
:104090003FF8801B02281DD82B681B01F7D52B6920
:1040A000A269134300202B61F8BD0029B1D0D36869
:1040B0006268C3F3021301339342AAD1BFE71168C8
:1040C0008E03B1D412685103A3D5ADE7126857052A
:1040D0009FD5A9E70320F8BD012D33690BD0626994
:1040E00023F0C063520823F4FE43013A0B4343EA32
:1040F00042633361C2E7226923F4C003520823F408
:10410000FE43013A0B4343EA42533361B6E700BF33
:10411000001002402DE9F043036813F4006683B0F9
:1041200004460CD0C16BB1F5000F00F0F680B1F57C
:10413000400F00F0F780002900F0138101269F0353
:1041400054D59A4B9A6DD50040F1DC800027984DEC
:104150002B6843F480732B60FDF7DAFF804606E09E
:10416000FDF7D6FFA0EB0803022B00F2E5802B68D9
:10417000D805F5D5B6BB8D4D226DD5F8903013F42A
:10418000407327D0934225D0D5F89010D5F89030C1
:1041900043F48033C5F89030D5F8903023F4803361
:1041A000C5F8903021F44073C907C5F8903011D597
:1041B000FDF7AEFF41F28839804606E0FDF7A8FF23
:1041C000A0EB0800484500F2B780D5F890309B0777
:1041D000F4D5226D7549D1F8903023F44073134320
:1041E000C1F890302368002F40F0AB80DF0708D57E
:1041F0006E49206AD1F8882022F003020243C1F8F8
:1042000088209D0708D56949606AD1F8882022F086
:104210000C020243C1F88820980608D56349A06AB9
:10422000D1F8882022F440620243C1F88820990521
:1042300008D55E49606BD1F8882022F44022024301
:10424000C1F888205A0508D55849A06BD1F88820B4
:1042500022F440120243C1F888205F0608D5534972
:10426000E06AD1F8882022F440520243C1F8882045
:10427000DD0508D54D49206BD1F8882022F4403265
:104280000243C1F8882098040ED54849206CD1F823
:10429000882022F040620243B0F1006FC1F888200C
:1042A00055D0B0F1806F6CD059030ED53F49606C8A
:1042B000D1F8882022F040620243B0F1006FC1F8CB
:1042C000882049D0B0F1806F64D05A040BD53748AC
:1042D000A16CD0F8882022F040520A43B1F1805FEF
:1042E000C0F8882044D01B0408D5304AE16CD2F8CD
:1042F000883023F080430B43C2F88830304603B047
:10430000BDE8F0839A6D42F080529A659B6D03F090
:1043100080530193019B012719E72448C26842F4A6
:104320008032C2602148D0F8882022F440020A433B
:10433000C0F88820002602E723680326002F3FF4F8
:1043400055AF1A498A6D22F080528A654EE7CA68D5
:1043500042F48012CA60A7E7CA6842F48012CA60B9
:10436000B3E70430FFF748FE0646E0B12368E6E60F
:104370000221201DFFF740FE23680028B3D0064627
:10438000B1E70121201DFFF737FE236800288BD0FD
:10439000064689E70121201DFFF72EFE236800282D
:1043A00093D0064691E7E16B2368BBE7001002401B
:1043B000007000402DE9F04182B000230E46174600
:1043C0008DF803300546FDF7A3FE37443F1AFDF78D
:1043D0009FFE324B2C681B6803EB8303C3EBC303C4
:1043E0001B0D07FB03F30136019311D1A36813F4EE
:1043F000C06F09D0237BDBB28DF803309DF803300A
:10440000A36813F4C06FF5D1002002B0BDE8F081BD
:104410008046234613E0237BDBB28DF803309DF802
:104420000330FDF775FEA0EB0800B8420CD2019AEC
:10443000019B013B002A01932B6808BF00279B6862
:1044400013F4C06FE7D1DFE7D5E900315A68B1F561
:10445000827F22F0E0025A6013D0AA6AB2F5005FB0
:1044600007D11A6822F400521A601A6842F4005206
:104470001A600122002385F85D2085F85C30032056
:10448000C3E7AA68B2F5004F02D0B2F5806FE4D15D
:104490001A6822F040021A60DFE700BF0001002026
:1044A0002DE9F04F85B000230E468DF8073001EB63
:1044B000020917460546FDF72BFEDFF82481A9EB1C
:1044C000000AFDF725FED8F800302C6803EB8303C3
:1044D000C3EBC3031B0D0AFB03F30293731C18BF4A
:1044E000834630D1A36813F4C05FFBD1FDF710FE03
:1044F000A9EB0009FDF70CFED8F800302C68C3F3D7
:10450000CB3309FB03F3711C8046039330D1A368BE
:104510001A06FCD43A4631462846FFF74BFF58BBF3
:1045200005B0BDE8F08FFDF7F3FDA0EB0B00824571
:104530002AD9029A029B2C68002A03F1FF3308BF94
:104540004FF0000A0293A36813F4C05FEBD1CDE7EC
:10455000FDF7DEFDA0EB0800814515D9039A039B0A
:104560002C68002A03F1FF3308BF4FF000090393C2
:10457000A3681B06ECD4CDE72B6E43F020032B661B
:10458000032005B0BDE8F08FD5E900315A68B1F5D8
:10459000827F22F0E0025A6016D0AA6AB2F5005F6C
:1045A00007D11A6822F400521A601A6842F40052C5
:1045B0001A60012385F85D302B6E002243F0200342
:1045C00085F85C202B66DBE7AA68B2F5004F02D0C5
:1045D000B2F5806FE1D11A6822F040021A60DCE780
:1045E00000010020002874D02DE9F0410446406A03
:1045F000002853D000232361636194F85D300022CA
:10460000A26203F0FF02002B57D02168E768022363
:1046100084F85D300B68B7F5E06F23F040030B6062
:1046200042D851D1A56A4FF4805C05F40055626808
:10463000A368A66903F4044302F482721A4323694F
:1046400003F002031343626902F001021A43636B31
:1046500007F4706703F0080343EA070EE36903F009
:104660003808236A03F0800706F40073134343EA13
:1046700008033B43360C2B4306F004060B6000F0A6
:1046800010004EEA0603034343EA0C034B6000208C
:104690000123206684F85D30BDE8F0816368B3F5DE
:1046A000827FAAD0E061A8E7B7F5706F13D1A56A41
:1046B0004FF0000C05F40055B9E7204684F85C2063
:1046C000FDF79AF8606AA0E74FF4805C0025A562C8
:1046D000ADE7012070474FF0000CF7E72DE9F041FE
:1046E000044690F85C00012882B075D01D46012375
:1046F00084F85C3088461746FDF70AFD94F85D3073
:10470000012B0646D8B209D002200122002384F8EA
:104710005D2084F85C3002B0BDE8F081B8F1000F94
:10472000F3D0002FF1D0A1682368C4F838800022AC
:104730000320B1F5004F84F85D00A787226622644C
:10474000E787A4F84420E2642265A4F846201846CE
:104750006AD01A68520603D41A6842F040021A60FE
:10476000E2686168B2F5E06F3AD9002900F09980FB
:10477000012F00F09680E28F92B2BAB16A1C40F02D
:1047800087809A68970740F1A480A26B32F8021BD9
:10479000D960B4F83EC0A2630CF1FF3C1FFA8CFC58
:1047A000A4F83EC0E28F92B2002AEAD132462946EE
:1047B0002046FFF775FE08B120232366A36833B9AE
:1047C00022680193D368019393680193019B206E43
:1047D000003818BF012098E7022002B0BDE8F08140
:1047E000002968D0012F66D0E38F9BB2002BDDD06B
:1047F000681C12D033E0E38FA06B9BB2012B014603
:1048000070D931F8023BD360E38FA163023B9BB2C6
:10481000E387E18F89B20029C8D02268936899079D
:10482000E9D4FDF775FCF4E71A6822F040021A603B
:104830001A6842F480421A608BE7E28FA06B92B252
:10484000012A014663D931F8022BDA60E38FA163B4
:10485000023B9BB2E387E38F9BB2002BA6D0236879
:104860009A689207E9D4FDF753FC831BAB42F2D35D
:1048700003204AE7A26B32F8023BC360E38FA263D6
:10488000013B9BB2E387E38F9BB2002B8ED0206865
:1048900083689907EED4FDF73BFC831BAB42F2D350
:1048A000E6E7414631F8022BDA60E28FA163013A74
:1048B00092B2E2875FE7E28F92B2012A1CD94146A9
:1048C00031F8022BDA60E38FA163023B9BB2E387EE
:1048D0008AE7FDF71DFCE38F9BB2002B3FF466AF28
:1048E00023684EE703781373E38FA26B013B013219
:1048F0009BB2A263E3878CE798F800201A73E38FDA
:10490000A26B013B01329BB2A263E3876CE70278A2
:104910001A73E38FA26B013B01329BB2A263E38760
:1049200099E700BF2DE9F843044690F85C00089E23
:10493000012800F09E801F46012384F85C308946E0
:104940009046FDF7E5FB054694F85D006368012895
:10495000C1B210D0B3F5827F08D00220012200231B
:1049600084F85D2084F85C30BDE8F883A268002AF2
:10497000F3D10429F1D1B9F1000F00F0D480B8F1DE
:10498000000F00F0D080002F00F0CD8094F85D2063
:10499000E168C4F84080042A1CBF052284F85D2029
:1049A0000022B1F5E06F2266E2642265A4F8467049
:1049B0002268A4F84470C4F83890A787E7875BD8CA
:1049C000012F00F02481516821F480515160116859
:1049D000490603D4116841F0400111606BB9E38FBF
:1049E0009BB2012B40F2FD80494631F8023BD36077
:1049F000E38FA163023B9BB2E3870127E38F9BB266
:104A00002BB9B4F846309BB2002B00F082802168AD
:104A10008B689A0706D5E38F9BB21BB1002F40F03D
:104A2000958000278B6813F0010319D0B4F8462055
:104A300092B2AAB1B4F84600226C80B2012879D9AA
:104A4000C86822F8020B2264B4F84620023A92B2F7
:104A5000A4F84620B4F8462092B2012A65D91F4630
:104A6000FDF756FB401BB042C8D3731CC6D00320D1
:104A700074E70220BDE8F883516821F48051516049
:104A80001168480603D4116841F040011160002B01
:104A900040F08280494631F8023BD360E38FA16346
:104AA000013B9BB2E387731C4FF0010728D06EE0F7
:104AB0002268936898070DD5E38F9BB253B147B135
:104AC000A36B33F8021BD160A363E38F013B9BB25E
:104AD000E3870027936813F001030FD0B4F8461062
:104AE00089B259B11F46236CD26823F8022B236484
:104AF000B4F84630013B9BB2A4F84630FDF708FB02
:104B0000E38F9BB2002BD3D1B4F846309BB2002B7D
:104B1000CED12A4631462046FFF7C2FC00283FF49A
:104B20001DAF20232366012018E74A6842F4805213
:104B30004A6094E7097B1170226C01322264B4F858
:104B40004620013A92B2A4F8462088E7E28FA36B90
:104B500092B2012A50D933F8022BCA60A363E38FC3
:104B6000023B9BB2E3875CE7B4F846309BB2002B74
:104B7000CFD022689368990723D4936813F0010378
:104B80000DD1FDF7C5FA401BB042BFF470AFE38F03
:104B90009BB2002BEDD1E7E7012F84D17AE7B4F87F
:104BA000461089B20029ECD01F46236CD26823F846
:104BB000022B2364B4F84630013B9BB2A4F8463084
:104BC000DFE7E38F9BB2002BD7D047B1A36B33F85D
:104BD000021BD160A363E38F013B9BB2E3870027F5
:104BE000CBE799F800301373E38FA26B013B0132DE
:104BF0009BB2A263E38700E71B780B73E38FA26B82
:104C00002168013B01329BB2A263E38709E7536845
:104C100043F480535360136859063FF5E0AE1368C0
:104C200043F040031360DAE62DE9F0411D46436886
:104C3000B3F5827F84B004461746884600F0908022
:104C400094F85C30012B00F09880012384F85C30EC
:104C5000FDF75EFA94F85D30012B0646D8B209D014
:104C600002200122002384F85D2084F85C3004B027
:104C7000BDE8F081B8F1000FF3D0002FF1D0E26869
:104C80002168C4F840800023042084F85D00B2F558
:104C9000E06F2366A4F84670E387A363A387E36409
:104CA00023654868A4F844700B4640F2DC8020F489
:104CB00080504860A068B0F5004F00F0E0800868C0
:104CC00040065ED4086840F040000860B2F5E06F2E
:104CD00057D8B4F8462092B2FAB1681C13D0B8E0A5
:104CE000226C1B7B1370B4F846C0226C0CF1FF3CA5
:104CF0001FFA8CFCA4F846C0B4F8463001329BB2CF
:104D0000226453B123689A68D107E9D4FDF700FA09
:104D1000B4F846309BB2002BF4D16368B3F5827FC0
:104D200000F0BA80FDF7F4F9AF193F1AFDF7F0F97A
:104D3000804B22681B68C3F3CB33804607FB03F329
:104D4000681C03936ED193681906FCD46368B3F5AD
:104D5000827F00F0AF80206E003818BF012080E70E
:104D60008368002B7FF46CAF00950425134680F810
:104D70005D500A46FFF7D6FD79E7022004B0BDE892
:104D8000F081B4F8462092B2002AC6D06A1C31D114
:104D90008B68DF0714D5236CCA6823F8022BB4F89C
:104DA00046C023640CF1FF3C1FFA8CFCA4F846C0FB
:104DB000B4F846309BB2002BAFD08B68DF07EAD443
:104DC000FDF7A6F9B4F846309BB2002BA5D02168B8
:104DD000DEE7226CDB6822F8023BB4F8463022643E
:104DE000013B9BB2A4F84630B4F846309BB2002B8E
:104DF00093D023689A68D707EBD4FDF789F9831B12
:104E0000AB422ED2F0E7FDF783F9A0EB0800B842E1
:104E100067D2039A039B002A03F1FF3322680393AE
:104E200008BF002793681B06EDD48FE7226C1B7B1D
:104E30001370B4F84630226C013B01329BB22264FD
:104E4000A4F84630B4F846309BB2002B3FF465AF6F
:104E500023689A68D207E9D4FDF75AF9831BAB425D
:104E6000F0D30320FDE640F480504860A068B0F520
:104E7000004F04D0086847067FF524AF29E708688B
:104E800020F040000860086820F48040086008684E
:104E900040063FF51BAF15E7A368B3F5004F03D0FD
:104EA000B3F5806F7FF43EAF2268136823F04003B0
:104EB000136037E7A368B3F5004F03D0B3F5806FF5
:104EC0007FF449AF324629462046FFF773FA00289F
:104ED0003FF441AF236E43F0200323662023236673
:104EE00039E7D4E900315A68B1F5827F22F0E00257
:104EF0005A6013D0A26AB2F5005F07D11A6822F493
:104F000000521A601A6842F400521A60012384F8B1
:104F10005D30236E43F020032366DFE7A268B2F51D
:104F2000004F02D0B2F5806FE4D11A6822F040023F
:104F30001A60DFE70001002090F85D00704700BFB5
:104F4000704700BF00285DD070B590F83D30044632
:104F500003F0FF02002B47D02268314E6168E06801
:104F6000A569022384F83D30B24213682BD0B2F118
:104F7000804F3ED02B4EB24246D006F58066B242FC
:104F800025D023F080032B431360D062916201236C
:104F9000536184F8483084F83E3084F83F3084F818
:104FA000403084F8413084F8423084F8433084F84B
:104FB000443084F8453084F8463084F8473084F82B
:104FC0003D30002070BDA66823F07003334326698E
:104FD00023F44073334323F080032B431360D062E8
:104FE000916263691363D2E780F83C20FFF7A8FF62
:104FF000B2E7A66823F070033343266923F44073B5
:105000003343BEE701207047266923F440733343DE
:1050100023F080031D431560D0629162E1E700BF79
:10502000002C01400040014090F83D30012B16D18A
:1050300003681049022280F83D20DA688B4242F072
:105040000102DA600DD0B3F1804F0AD00A4A9342D0
:1050500007D01A6842F001021A6000207047012050
:1050600070479968054A0A40062AF6D0B2F5803F93
:10507000EFD1F2E7002C01400040014007000100A1
:10508000704700BF704700BF704700BF704700BF48
:1050900003681A69910710B5044602D5DA689207C9
:1050A00068D41A69520702D5DA6850074FD41A69D2
:1050B000110702D5DA68120737D41A69D00602D56B
:1050C000DA68D1061ED41A69D20702D5DA68D00789
:1050D00069D41A69110602D5DA6812066BD41A6906
:1050E000D00502D5DA6811066DD41A69520602D5C8
:1050F000DA6850066FD41A69910602D5DA6892060A
:1051000049D410BD6FF01001082219612277DB69C4
:1051100013F4407F20466FD1FFF7B2FF2046FFF720
:10512000B3FF002223682277CDE76FF00801042245
:1051300019612277DB699B0720465AD1FFF7A0FF50
:105140002046FFF7A1FF002223682277B5E76FF022
:1051500004010222196122779B6913F4407F2046E3
:1051600044D1FFF78DFF2046FFF78EFF0022236812
:1051700022779CE76FF002010122196102779B6997
:10518000990730D1FFF77CFF2046FFF77DFF002213
:105190002368227785E76FF0200220461A61BDE878
:1051A000104000F02DB86FF001021A612046FCF7A4
:1051B00055FA23688DE76FF080021A61204600F0EF
:1051C00021F823688BE76FF480721A61204600F0A3
:1051D0001BF8236889E76FF040021A612046FFF749
:1051E00055FF236887E7FFF74DFFD0E7FFF74AFF3A
:1051F000BCE7FFF747FFA6E7FFF744FF91E700BFD3
:10520000704700BF704700BF704700BF38B5044605
:105210000268836800696169156803430B43E069AC
:105220006349034329400B4313605368E16823F447
:1052300040530B435F4953608A42A369916830D061
:10524000256A21F430612B430B435B4993608A420A
:1052500013D15A4BD3F8883003F00303022B65D0E7
:10526000032B50D0012B48D0B0F5004F7CD0FEF777
:105270008FFE00284CD1002036E0514B9A4232D1AB
:1052800003F5E633D3F8883003F00C030C2B2AD84F
:10529000DFE803F064292929332929294C29292900
:1052A000390021F430610B4344489360D0F88830D2
:1052B00003F44063B3F5006F3DD007D8C3B1B3F535
:1052C000806F10D1FEF738FA28B9D4E7B3F5406FF4
:1052D00009D14FF40040626802EB4203834202D8D6
:1052E000B0EB023F29D9012000236366A36638BDD5
:1052F000FEF73CFE0028EED1BDE7B0F5004F4CD0E4
:10530000FEF71AFAB5E7B0F5004F4ED04FF4004063
:1053100063684FF6EF7200EB5300B0FBF3F0A0F1BF
:1053200010039342DFD82368D860A4E7B0F5004F9C
:1053300039D02448ECE72348CDE7510800238C46B8
:105340004FF480751946E0FB05C16046FAF738FF57
:105350001D4BA0F540729A42C5D8E4E7B0F5004F66
:105360001ED0FEF703FE84E7FEF712FE002882D06F
:10537000430062684FF6EF7103EB5203B3FBF2F3A5
:10538000A3F110028A42AED823F00F02216892B234
:10539000C3F342031343CB606DE7FEF7CDF9E5E7B6
:1053A000FEF7E4FDE2E7094BE3E74FF48033E0E783
:1053B000F369FFEF00800040003801400010024018
:1053C000004400400024F400FFFC0F000048E80106
:1053D000436ADA0710B406D50168846A4A6822F481
:1053E000003222434A609C0706D50168C46A4A68B5
:1053F00022F4803222434A60590706D50168046BC3
:105400004A6822F4802222434A601A0706D50168BE
:10541000446B4A6822F4004222434A60DC0606D507
:105420000168846B8A6822F4805222438A6099065C
:1054300006D50168C46B8A6822F4005222438A6050
:105440005A0609D50168046C4A6822F48012224386
:10545000B4F5801F4A600BD01B0606D50268816C2C
:10546000536823F400230B4353605DF8044B7047EB
:105470004A68446C22F4C00222434A60ECE700BF51
:105480002DE9F843DDF820800468B8F1FF3F0D46B0
:1054900016460AD1E36935EA03030CBF0123002352
:1054A0009E42F7D00020BDE8F88307469946E2699E
:1054B00035EA02020CBF01230023B342F2D1FCF70C
:1054C00027FEA0EB090040452ED83C682246B8F1E3
:1054D000000F2AD023685807E9D5E3691905E6D5F6
:1054E0004FF40063236254E8003F23F4D07344E890
:1054F000003139B152E8003F23F4D07342E8003163
:105500000029F7D102F1080353E8003F23F001031B
:1055100002F1080040E800310029F3D12023BB67E5
:10552000FB67C7F8803017E03A6852E8003F23F481
:10553000D07342E800310029F7D102F1080353E8A3
:10554000003F23F0010302F1080040E80031002988
:10555000F3D12023BB67FB67002387F87430032057
:10556000A1E700BF2DE9F0430446806F202883B0F7
:1055700040F0A9808846002947D01746002A44D029
:105580001D4694F87430012B00F09D80012384F8AF
:1055900074304FF000092123C4F88090A367FCF712
:1055A000B7FDA368A4F85070B3F5805FA4F85270FB
:1055B000064600F08C80B4F8523000229BB284F88A
:1055C0007420B3B123686A1C23D1DA691006FCD5B4
:1055D000B8F1000F72D018F8012B1A85B4F85220D8
:1055E000013A92B2A4F85220B4F8522092B2002AA2
:1055F000E9D100953346002240212046FFF740FFC5
:10560000002857D12023A36700E0012003B0BDE8A4
:10561000F083DA691106DBD4FCF77AFD801B854242
:105620002ED323681A4665B319684907F1D5D9699D
:105630000F05EED54FF40061196253E8001F21F405
:10564000D07143E8001038B152E8003F23F4D07322
:1056500042E800310029F7D102F1080353E8003F86
:1056600023F0010302F1080040E800310029F3D1E2
:105670002023A36784F87410E367C4F8803019E02E
:10568000226852E8003F23F4D07342E80031002939
:10569000F7D102F1080353E8003F23F0010302F1C0
:1056A000080040E800310029F3D12023A36784F8E3
:1056B0007410E367032003B0BDE8F08339F8022BD0
:1056C000C2F3080289E7022003B0BDE8F083236932
:1056D000002B7FF470AFC14698466CE7002862D07B
:1056E00070B5836F82B00446002B49D02268242312
:1056F000A367136823F0010320461360FFF786FDBC
:1057000001283AD0636A002B33D12368596821F409
:1057100090415960996821F02A0199601968002523
:1057200041F001011960C4F88050FCF7F1FC2368D6
:105730001A68120706460CD41B685B0725D40023A1
:105740002022A26784F87430E2671846236602B00C
:1057500070BD6FF07E4300932A4603464FF400115C
:105760002046FFF78DFEE0B923681B685B070CD469
:10577000E5E72046FFF72CFEC7E7012002B070BD29
:1057800080F87430FCF772F8B0E76FF07E43009356
:10579000002233464FF480012046FFF771FE0028B7
:1057A000CDD00320D3E70120704700BF08B54FF0EC
:1057B000E0231B6901F04AFE012800D108BDBDE8C5
:1057C000084000F0D7B900BFEFF305832BB9064BB3
:1057D000186828B901221A6070476FF005007047F9
:1057E0004FF0FF30704700BF1013002010B5EFF3EB
:1057F000058474B9084B1A68012A07D107490222A7
:10580000CC771A6001F0FCFB204610BD4FF0FF3052
:1058100010BD6FF0050010BD1013002000ED00E07A
:10582000EFF305830BB101F087BC01F07FBC00BF33
:10583000F0B587B0002514460595EFF3058212B147
:10584000002007B0F0BD0028FAD00CB3A369DBB983
:1058500018236268D207F3D4656935B3AA08A6682D
:10586000D4F800C0E76816B3B7F5C07FE8D3246961
:10587000002CE5D0002DE3D00093CDE901460B4686
:10588000614601F083FADCE75D1E372DE1D9D7E7E9
:105890008022182300930B46214605AC019401F0A9
:1058A000B1FA0128CCD10598CBE78022D7E7002FA9
:1058B000C6D12469002CC3D192B26446EAE700BF86
:1058C000EFF305823AB908B508B9002008BD01F028
:1058D00041FB002008BD6FF00500704730B583B074
:1058E000EFF3058565B9044601F020FC211A002973
:1058F000019008DD01A801F0B5FA284603B030BDDB
:105900006FF00500FAE76FF00300F7E7044B036060
:1059100010B48023034C0C605DF8044B1360704797
:1059200090110020900F0020054B036010B44FF43D
:105930008073044C0C605DF8044B1360704700BF2B
:10594000100E0020100A002000F108034FF0FF3174
:105950000022C0E90131C36003610260704700BFEB
:1059600000230361704700BF4268036810B4946865
:105970000133C1E90124616091605DF8044B086165
:105980000360704730B40D686B1C10D000F1080341
:105990001C465B681A68AA42FAD902684B60013259
:1059A00099608C606160086130BC02607047046976
:1059B0006368F2E7036910B4D0E901125C688A6099
:1059C0008442516008BF5A601A685DF8044B002198
:1059D000013A01611A601868704700BF0848006802
:1059E000006880F308884FF0000080F3148862B6E6
:1059F00061B6BFF34F8FBFF36F8F00DF00BF0000B2
:105A000008ED00E0DFF80C00016841F4700101606E
:105A10007047000088ED00E00E4B1B6882B000224A
:105A20000133019208D04FF0500383F31188BFF384
:105A30006F8FBFF34F8FFEE74FF0500383F3118852
:105A4000BFF36F8FBFF34F8F019B002BFCD002B0D1
:105A5000704700BF0C01002010B44FF08073074C5A
:105A600040F8043C21F001016FF0020340E90341DA
:105A700040E909325DF8044B44387047195A000870
:105A8000074B19680868B0E8F04F80F30988BFF346
:105A90006F8F4FF0000080F311887047AFF30080E4
:105AA000A88D00204FF0500383F31188BFF36F8F50
:105AB000BFF34F8F0B4A13680133012B136000D0E3
:105AC00070474FF0E023D3F8043DDBB2002BF7D052
:105AD0004FF0500383F31188BFF36F8FBFF34F8FE5
:105AE000FEE700BF0C010020084A136843B94FF0DD
:105AF000500383F31188BFF36F8FBFF34F8FFEE71F
:105B0000013B13600BB983F3118870470C0100202F
